:1010A400900043120415900047EBF0A3EAF0A3E983
:0110B400F04B
:1010B500E4A3F0F090004AE0FBC3940474809480AC
:1010C5005036900043E0FCA3E0FDA3E0FEA3E0FF63
:1010D500EB75F008A4F9F8120402EFE4A3E0FBA312
:1010E500E0FAA3E0F9A3E0F582758300EF1202B2FE
:0810F50090004AE004F080BC09
:0110FD0022D0
:10102500900044EDF0A3EBF0A3EAF0A3E9F0AE07DE
:10103500EFF4900049F0E4A3F0AD077F011212230D
:10104500900049E0FF900044E0FDEF6D900049F00D
:101055007F01121223E490004AF0900048E0FF90CF
:10106500004AE0FEC39F502C900049E0FF900045E8
:10107500E0FBA3E0FAA3E0F98E82758300120285F6
:10108500FDEF6D900049F07F0112122390004AE0B8
:0E10950004F080C6900049E0FD7F0112122396
:0110A300222A
:100C7B00900044EDF0A3EBF0A3EAF0A3E9F0AE078C
:100C8B00EFF490004CF0E4A3F0AD077F01121223B8
:100C9B0090004CE0FF900044E0FDEF6D90004CF0B5
:100CAB007F01121223E490004DF090004BE0FF9077
:100CBB00004DE0FEC39F502C90004CE0FF90004590
:100CCB00E0FBA3E0FAA3E0F98E82758300120285A4
:100CDB00FDEF6D90004CF07F0112122390004DE060
:100CEB0004F080C6E490004DF090004BE0FF9000C4
:100CFB004DE0FEC39F502C90004CE0FF900048E06D
:100D0B00FBA3E0FAA3E0F98E82758300120285FD46
:100D1B00EF6D90004CF07F0112122390004DE00418
:0D0D2B00F080C690004CE0FD7F0112122305
:010D38002298
:100D3900900044EDF0A3EBF0A3EAF0A3E9F0AE07CD
:100D4900EFF490004AF0E4A3F0AD077F01121223FB
:100D590090004AE0FF900044E0FDEF6D90004AF0FA
:100D69007F01121223E490004BF0900048E0FF90BD
:100D7900004BE0FEC39F502C90004AE0FF900045D5
:100D8900E0FBA3E0FAA3E0F98E82758300120285E5
:100D9900FDEF6D90004AF07F0112122390004BE0A5
:100DA90004F080C6E490004BF0900049E0FF900009
:100DB9004BE0C39F500FE4FD7F0112122390004BBB
:0F0DC900E004F080E490004AE0FD7F0112122365
:010DD80022F8
:02129C00AE079B
:10129E00EFF4900085F0AD077F01121223900085C8
:0712AE00E0FD7F0112122395
:0112B5002216
:0D0F9D00900045EBF0A3EAF0A3E9F0AE07E9
:100FAA00EFF490004AF0E4A3F0AD077F0112122398
:100FBA00E490004BF0900048E0FF90004BE0FEC345
:100FCA009F502C90004AE0FF900045E0FBA3E0FA16
:100FDA00A3E0F98E82758300120285FDEF6D900001
:100FEA004AF07F0112122390004BE004F080C6E41D
:100FFA0090004BF0900049E0FF90004BE0C39F50F7
:10100A000FE4FD7F0112122390004BE004F080E40C
:0A101A0090004AE0FD7F011212234E
:0110240022A9
:0D000E0090007AEBF0A3EAF0A3E9F0AE0752
:10001B00EFF490007EF0E4A3F0AD077F0112122302
:10002B00E490007FF090007DE0FF90007FE0FEC346
:10003B009F502C90007EE0FF90007AE0FBA3E0FA4B
:10004B00A3E0F98E82758300120285FDEF6D90009F
:10005B007EF07F0112122390007FE004F080C690A7
:09006B00007EE0FD7F011212236A
:010074002269
:1012D000900043EDF07B017A00794390004874015F
:0412E000F0120F9D5C
:0112E40022E7
:0C131D0049522D50524F5800706374006C
:1010FE004400180000000044000000000000410001
:10110E001C00410008004100220042000400004182
:10111E00001F004A000D21160304050607080900EA
:10112E004200090000420023000042000600004277
:09113E00000B000042002000003B
:02007E00C2833B
:10008000E490002DF0900036120421000000009052
:10009000003A1204210000000090003E12042100EA
:1000A000000000E4900042F09000477402F0A312B8
:1000B0000421000009607F007E367D6E7C01120401
:1000C0007F7D1D7F401212D090002E7402F0E4A3B9
:1000D000F07B017A00792E9000487402F0E4A3F0DE
:1000E0007F49120F9D7B017A0079327F007EE17D8E
:1000F000007C001210A47B017A00793290004874D1
:1001000004F0E4A3F07F52120F9D00000000E49081
:10011000002DF07498FF7BFF7A13791D90004874CE
:1001200007F0A37401F0E4FD120D399000361204BB
:10013000210000000090003A1204210000C8429003
:10014000002DE04498FF9000487401F0A37400F083
:10015000A3743AF0A37404F07B017A0079367D0130
:10016000120C7B9000361204210000000090003A2F
:100170001204210000C84290002DE04498FF900036
:10018000487401F0A37400F0A3743AF0A37404F06F
:100190007B017A0079367D03120C7B90002DE044C0
:1001A00090FF7BFF7A1379259000487403F0A374C5
:1001B00001F07D04120D3990002E7401F0E4A3F0DB
:1001C000A37403F0E4A3F090002DE04490FF7B01C2
:1001D0007A00792E9000487404F07D801210257DFD
:1001E000047F01121223900081E0FCA3E0FDA3E054
:1001F000FEA3E0FF90003E12041520003B90003E5D
:10020000E0FCA3E0FDA3E0FEA3E0FFFBAA06A90536
:10021000A804900081E0FCA3E0FDA3E0FEA3E0C3FE
:100220009BFFEE9AFEED99FDEC98FCE47BE87A03E7
:10023000F9F8D31203F150C2200003020080C2007B
:10024000900080E0900042F06404600302008000AF
:100250000000009000477402F0A31204210000E1A6
:10026000007F007E367D6E7C0112047F000000005E
:10027000900081E0FCA3E0FDA3E0FEA3E0FF90007E
:040280001812041537
:010284002257
:10060400D283900018E0F8A3E0F9A3E0FAA3E0FB9A
:10061400900081E0FCA3E0FDA3E0FEA3E0C39BFF08
:10062400EE9AFEED99FDEC98FC7B3F7A42790F78C7
:1006340000C31203F1500312007E2000030206C718
:10064400C200900080E0FB900017F0FA900081E077
:10065400FCA3E0FDA3E0FEA3E0FF90001812041544
:10066400EA24FC605E24C1605A2441701890008121
:10067400E0FCA3E0FDA3E0FEA3E0FF900018120459
:10068400158040803EEB54C764447037900080E08E
:100694005438FF131313541F90001CF0E0FFF87438
:1006A40002088002C333D8FC900008F0E4900022D2
:1006B400F0900008E0FF900022E0C39F5005E004A2
:1006C400F080EE900000E0F8A3E0F9A3E0FAA3E0E4
:1006D400FB900081E0FCA3E0FDA3E0FEA3E0C39B4C
:1006E400FFEE9AFEED99FDEC98FCE47B32FAF9F802
:1006F400C31203F140030206047B017A00790D90D2
:1007040000487401F0A3F07FC8120F9D900081E0AF
:10071400FCA3E0FDA3E0FEA3E0FF9000001204159B
:100724007B017A00790D9000317402F07F94120BF2
:10073400A990000EE090001DF090000DE090001EC6
:10074400F090001DE0FEA3E07802CEC313CE13D8D0
:10075400F9F0EE90001DF0E090000EF090001EE025
:0807640090000DF002060422D2
:0D1147004400810000000041008000C10054
:03000B000211AC33
:1011AC00C0E0C0F0C083C082C0D075D000C000C009
:1011BC0004C005C006C007758CA0758A00C28D904E
:1011CC000081E0FCA3E0FDA3E0FEA3E02401FFE42A
:1011DC003EFEE43DFDE43CFC900081120415D0077A
:1011EC00D006D005D004D000D0D0D082D083D0F09F
:0311FC00D0E0320E
:03007B000212442A
:10124400C0E0C083C08230F80AC2F8900080E59AFA
:0F125400F0D20030F902C2F9D082D083D0E0325C
:10115500E4F5B1F5B2F5B3F5B4F5ACF5AD120F0F95
:10116500439C015389F0438901438E08758CA0E4A3
:10117500F58A53890F438910538EEFD2A943AC01E9
:1011850053ADFED2B053B1F743B208D2AFD28C12F1
:10119500130B7D0F7F80120DD97D497F90120DD9DC
:0711A50012007E1206042275
:10130B0043B30843B40843B31043B41075BE0ED2B5
:02131B00C622E8
:1012E500AFBDEF700DD201D2C4C2C330C304C2C6B4
:0312F500D2C6223C
:0B0BA90090002EEBF0A3EAF0A3E9F0AF
:100BB400E4FED2C5C2C330C3FDADBDED640860051B
:100BC400D201020C7275BC92C2C5C2C330C3FDAD62
:100BD400BDED64186005D201020C728FBCC2C33033
:100BE400C3FDAFBDEF64286005D201020C72D2C50B
:100BF400C2C330C3FDAFBDEF64106004D201806E88
:100C0400C2C575BC93C2C330C3FDAFBDEF644060C1
:100C140004D2018059E4FE900031E0FFEEC39F50FE
:100C24002AD2C2C2C330C3FDAFBDEF64506004D248
:100C340001803B90002EE0FBA3E0FAA3E0F98E8252
:100C4400758300E5BC1202B20E80CCC2C2C2C330AE
:100C5400C3FDAFBDEF64586004D2018011C2C3D29A
:100C6400C430C40A1212E53001F7800280F3300167
:060C7400051212E5C201A9
:010C7A002257
:100DD900D2C5C2C330C3FDAEBDEE64086005D20101
:100DE900020E6CC2C575BC92C2C330C3FDAEBDEE66
:100DF90064186004D201806B8FBCC2C330C3FDAFDD
:100E0900BDEF64286004D2018059AF058FBCC2C30D
:100E190030C3FDAFBDEF64286004D2018045D2C460
:100E2900C2C330C40A1212E53001F7803680F3D20A
:100E3900C5C2C330C3FDAFBDEF64086004D20180F1
:100E490022C2C575BC92C2C330C3FDAFBDEF6418E1
:100E590070CCD2C4C2C330C40A1212E53001F78083
:0B0E69000280F33001051212E5C20107
:010E7400225B
:1012630043DE0143DE0243DE0453DF3F43DF035328
:0D127300DFFB75D13075D90FD2DED2DF223E
:1012F800C374FF9FF5D2C374FF9DF5D3C374FF9BDE
:03130800F5D422F7
:0609FF00900067120415D0
:100A0500538EF75389F04389017B407A42790F78F9
:100A150000900067E0FCA3E0FDA3E0FEA3E0FF1269
:100A2500035FA804A905AA06AB0790006DE0FEA325
:100A3500E0FFE4FCFD1202D4E47B0CFAF9F81203A2
:100A45005FC374FF9FFF74FF9EFEE49DFDE49CFC65
:100A5500EFE490006FEFF07B407A42790F780090D9
:100A65000067E0FCA3E0FDA3E0FEA3E0FF12035F47
:100A7500A804A905AA06AB0790006DE0FEA3E0FF58
:100A8500E4FCFD1202D4E47B0CFAF9F812035FC30F
:100A950074FF9FFF74FF9EFEE49DFDE49CFC7808B7
:100AA50012040290006BE07002A3E0602190006FD9
:100AB500E0F58A8F8CD28C308DFDC28DC28C900072
:0E0AC5006CE024FFF090006BE034FFF080D571
:010AD3002200
:060AD400900070120415F1
:100ADA00538EEF53890F4389107B407A42790F78FE
:100AEA0000900070E0FCA3E0FDA3E0FEA3E0FF128B
:100AFA00035FA804A905AA06AB07900076E0FEA347
:100B0A00E0FFE4FCFD1202D4E47B0CFAF9F81203CC
:100B1A005FC374FF9FFF74FF9EFEE49DFDE49CFC8F
:100B2A00EFE4900078EFF07B407A42790F780090FA
:100B3A000070E0FCA3E0FDA3E0FEA3E0FF12035F68
:100B4A00A804A905AA06AB07900076E0FEA3E0FF79
:100B5A00E4FCFD1202D4E47B0CFAF9F812035FC339
:100B6A0074FF9FFF74FF9EFEE49DFDE49CFC7808E1
:100B7A00120402900074E07002A3E06021900078F1
:100B8A00E0F58B8F8DD28E308FFDC28FC28E900092
:0E0B9A0075E024FFF0900074E034FFF080D589
:010BA800222A
:06076C0090004E1204157E
:10077200E4F591900052E0FEA3E08EF012045207DD
:10078200A5000107AA000407B2001007BA0020075B
:10079200C2004007CA008007D2010007DA02000047
:1007A2000007E053C98F803653C98F43C910802E8A
:1007B20053C98F43C920802653C98F43C930801E35
:1007C20053C98F43C940801653C98F43C950800E05
:1007D20053C98F43C960800653C98F43C970C2C8C9
:1007E20043C98043C9047B407A42790F7800900064
:1007F2004EE0FCA3E0FDA3E0FEA3E0FF12035F9046
:100802000056E0F8A3E0F9A3E0FAA3E0FB1202D459
:10081200C006C007900052E0FEA3E0FFFBAA06E478
:10082200F9F8D007D00612035FC3E49FFFE49EFEEF
:1008320074019DFDE49CFCEFE490005AEFF07B40D4
:100842007A42790F780090004EE0FCA3E0FDA3E02D
:10085200FEA3E0FF12035F900056E0F8A3E0F9A3C5
:10086200E0FAA3E0FB1202D4C006C007900052E0F7
:10087200FEA3E0FFFBAA06E4F9F8D007D0061203B4
:100882005FC3E49FFFE49EFE74019DFDE49CFC783F
:1008920008120402900054E07002A3E0602190006C
:1008A2005AE0F5CC8FCDD2CA30CFFDC2CFC2CA90AA
:0F08B2000055E024FFF0900054E034FFF080D5B3
:0108C1002214
:0608C20090005B1204151A
:1008C800E4F59190005FE024FE602124FE60252479
:1008D800FC602924F8602D24F0603124E060352480
:1008E800C06039247F703B53C4F8803653C4F84342
:1008F800C401802E53C4F843C402802653C4F8436D
:10090800C403801E53C4F843C404801653C4F84378
:10091800C405800E53C4F843C406800653C4F84384
:10092800C4077B407A42790F780090005BE0FCA313
:10093800E0FDA3E0FEA3E0FF12035F900062E0F891
:10094800A3E0F9A3E0FAA3E0FB1202D4C0079000E9
:100958005FE0FFFBE4FAF9F8D00712035FC3E49FF6
:10096800FFE49EFE74019DFDE49CFCEFE4900066AC
:10097800EFF07B407A42790F780090005BE0FCA3AF
:10098800E0FDA3E0FEA3E0FF12035F900062E0F841
:10099800A3E0F9A3E0FAA3E0FB1202D4C007900099
:1009A8005FE0FFFBE4FAF9F8D00712035FC3E49FA6
:1009B800FFE49EFE74019DFDE49CFC78081204028D
:1009C800900060E07002A3E0602C53C4EF900066D2
:1009D800E0F5C58FC643C408E5C444EF64EF60F88A
:1009E80053C4EF53C4F7900061E024FFF090006017
:0609F800E034FFF080CAAC
:0109FE0022D6
:10128000EF14600D14600D14600E2403700DD2A9CC
:0C12900022D2AB22439B8022439C02220E
:100F0F00E58720E403020F9CA2AF9202C2AF75C720
:100F1F00AA75C755439F01A20292AF75A638E4F593
:100F2F00A775AF04A2AF9202C2AF75C7AA75C75516
:100F3F0043A401A20292AF85AE0875A639F5A7A208
:100F4F00AF9202C2AF75C7AA75C75543A401A202DB
:100F5F0092AF85AE09A2AF9202C2AF75C7AA75C78D
:100F6F0055539FFEA20292AF75C7AA75C755850844
:100F7F008475C7AA75C755850985A2AF9202C2AFFE
:0D0F8F0075C7AA75C755539FFEA20292AF09
:010F9C002232
:10047F00900043120415900047E014605814700365
:10048F000205772402600302060353B1BF53B2BFC4
:10049F0043B18053B27F759850438920438780437F
:1004AF008E1053C4DFE47B10FAF9F8900043E0FCA0
:1004BF00A3E0FDA3E0FEA3E0FF12035F900048E07E
:1004CF00F8A3E0F9A3E0FAA3E0FB12035FEFF40453
:1004DF00F58DD28E2253B1BF53B2BF53B17F53B2FA
:1004EF007F75985043878053C4F843C420E47B1032
:1004FF00FAF9F8900043E0FCA3E0FDA3E0FEA3E0CF
:10050F00FF12035F900048E0F8A3E0F9A3E0FAA31D
:10051F00E0FB12035FC3E49FFFE49EFE74019DFDA9
:10052F00E49CFC78081204028FC6E47B10FAF9F8F9
:10053F00900043E0FCA3E0FDA3E0FEA3E0FF120365
:10054F005F900048E0F8A3E0F9A3E0FAA3E0FB1204
:10055F00035FC3E49FFFE49EFE74019DFDE49CFCDA
:10056F00EFE48FC543C4082253B3BF43B44043B134
:10057F000453B2FB75F85075C480E47B10FAF9F898
:10058F00900043E0FCA3E0FDA3E0FEA3E0FF120315
:10059F005F900048E0F8A3E0F9A3E0FAA3E0FB12B4
:1005AF00035FC3E49FFFE49EFE74019DFDE49CFC8A
:1005BF0078081204028FC6E47B10FAF9F890004312
:1005CF00E0FCA3E0FDA3E0FEA3E0FF12035F9000B9
:1005DF0048E0F8A3E0F9A3E0FAA3E0FB12035FC33E
:1005EF00E49FFFE49EFE74019DFDE49CFCEFE48F0D
:0505FF00C543C4082201
:1012B600EF14600C0470103098FDAE99C298800748
:0912C60030F8FDAE9AC2F8AF0643
:0112CF0022FC
:10122300EF14600D047019C2998D9920991280FBF7
:1012330022539CFEC2F9AF058F9A30F9FD439C01FE
:011243002288
:1011FF00EF14601104701CED146006047015C2AC7E
:10120F0022D2AC2222ED146007047007539CFE22F9
:04121F00439C0122C9
:03000000020E7578
:100E7500787FE4F6D8FD9000007FFF7E03E4F0A3C1
:0A0E8500DFFCDEFA758120020ECAC0
:100E8F00021155E493A3F8E493A34003F68001F213
:100E9F0008DFF48029E493A3F85407240CC8C33364
:100EAF00C4540F4420C8834004F456800146F6DF33
:100EBF00E4800B01020408102040809010FEE47EB5
:100ECF00019360BCA3FF543F30E509541FFEE49328
:100EDF00A360010ECF54C025E060A840B8E493A3EF
:100EEF00FAE493A3F8E493A3C8C582C8CAC583CA1A
:100EFF00F0A3C8C582C8CAC583CADFE9DEE780BED2
:01115400009A
:10028500BB010CE58229F582E5833AF583E022502E
:1002950006E92582F8E622BBFE06E92582F8E22278
:0D02A500E58229F582E5833AF583E4932292
:1002B200F8BB010DE58229F582E5833AF583E8F082
:1002C200225006E92582C8F622BBFE05E92582C82E
:0202D200F22216
:1002D400E88FF0A4CC8BF0A42CFCE98EF0A42CFCC9
:1002E4008AF0EDA42CFCEA8EF0A4CDA8F08BF0A447
:1002F4002DCC3825F0FDE98FF0A42CCD35F0FCEBA6
:100304008EF0A4FEA9F0EB8FF0A4CFC5F02ECD396A
:0F031400FEE43CFCEAA42DCE35F0FDE43CFC22D7
:1003230075F008758200EF2FFFEE33FECD33CDCC91
:1003330033CCC58233C5829BED9AEC99E582984014
:100343000CF582EE9BFEED9AFDEC99FC0FD5F0D6F1
:10035300E4CEFBE4CDFAE4CCF9A88222B800C1B91B
:100363000059BA002DEC8BF084CFCECDFCE5F0CB59
:10037300F97818EF2FFFEE33FEED33FDEC33FCEB92
:1003830033FB10D703994004EB99FB0FD8E5E4F94D
:10039300FA227818EF2FFFEE33FEED33FDEC33FC3A
:1003A300C933C910D7059BE99A4007EC9BFCE99A2E
:1003B300F90FD8E0E4C9FAE4CCFB2275F010EF2F73
:1003C300FFEE33FEED33FDCC33CCC833C810D70773
:1003D3009BEC9AE899400AED9BFDEC9AFCE899F8AE
:0E03E3000FD5F0DAE4CDFBE4CCFAE4C8F92241
:1003F100EB9FF5F0EA9E42F0E99D42F0E89C45F062
:0104010022D8
:10040200E8600FECC313FCED13FDEE13FEEF13FFD8
:03041200D8F122FC
:0C041500ECF0A3EDF0A3EEF0A3EFF0225A
:10042100A8828583F0D083D0821204381204381256
:100431000438120438E473E493A3C583C5F0C5837B
:10044100C8C582C8F0A3C583C5F0C583C8C582C825
:010451002288
:10045200D083D082F8E4937012740193700DA3A339
:1004620093F8740193F5828883E473740293B5F070
:0D047200067403936860E9A3A3A3A380D8D8
:00000001FF
